{
  "_format": "hh-sol-artifact-1",
  "contractName": "Catos",
  "sourceName": "contracts/Catos.sol",
  "abi": [
    {
      "inputs": [
        {
          "internalType": "address payable",
          "name": "donationWallet",
          "type": "address"
        },
        {
          "internalType": "uint256",
          "name": "pOwner",
          "type": "uint256"
        },
        {
          "internalType": "uint256",
          "name": "prix",
          "type": "uint256"
        }
      ],
      "stateMutability": "nonpayable",
      "type": "constructor"
    },
    {
      "anonymous": false,
      "inputs": [
        {
          "indexed": true,
          "internalType": "address",
          "name": "owner",
          "type": "address"
        },
        {
          "indexed": true,
          "internalType": "address",
          "name": "approved",
          "type": "address"
        },
        {
          "indexed": true,
          "internalType": "uint256",
          "name": "tokenId",
          "type": "uint256"
        }
      ],
      "name": "Approval",
      "type": "event"
    },
    {
      "anonymous": false,
      "inputs": [
        {
          "indexed": true,
          "internalType": "address",
          "name": "owner",
          "type": "address"
        },
        {
          "indexed": true,
          "internalType": "address",
          "name": "operator",
          "type": "address"
        },
        {
          "indexed": false,
          "internalType": "bool",
          "name": "approved",
          "type": "bool"
        }
      ],
      "name": "ApprovalForAll",
      "type": "event"
    },
    {
      "anonymous": false,
      "inputs": [
        {
          "indexed": true,
          "internalType": "address",
          "name": "previousOwner",
          "type": "address"
        },
        {
          "indexed": true,
          "internalType": "address",
          "name": "newOwner",
          "type": "address"
        }
      ],
      "name": "OwnershipTransferred",
      "type": "event"
    },
    {
      "anonymous": false,
      "inputs": [
        {
          "indexed": true,
          "internalType": "address",
          "name": "from",
          "type": "address"
        },
        {
          "indexed": true,
          "internalType": "address",
          "name": "to",
          "type": "address"
        },
        {
          "indexed": true,
          "internalType": "uint256",
          "name": "tokenId",
          "type": "uint256"
        }
      ],
      "name": "Transfer",
      "type": "event"
    },
    {
      "inputs": [],
      "name": "_donationWallet",
      "outputs": [
        {
          "internalType": "address payable",
          "name": "",
          "type": "address"
        }
      ],
      "stateMutability": "view",
      "type": "function"
    },
    {
      "inputs": [],
      "name": "_pOwner",
      "outputs": [
        {
          "internalType": "uint256",
          "name": "",
          "type": "uint256"
        }
      ],
      "stateMutability": "view",
      "type": "function"
    },
    {
      "inputs": [],
      "name": "_prix",
      "outputs": [
        {
          "internalType": "uint256",
          "name": "",
          "type": "uint256"
        }
      ],
      "stateMutability": "view",
      "type": "function"
    },
    {
      "inputs": [
        {
          "internalType": "address",
          "name": "to",
          "type": "address"
        },
        {
          "internalType": "uint256",
          "name": "tokenId",
          "type": "uint256"
        }
      ],
      "name": "approve",
      "outputs": [],
      "stateMutability": "nonpayable",
      "type": "function"
    },
    {
      "inputs": [
        {
          "internalType": "address",
          "name": "owner",
          "type": "address"
        }
      ],
      "name": "balanceOf",
      "outputs": [
        {
          "internalType": "uint256",
          "name": "",
          "type": "uint256"
        }
      ],
      "stateMutability": "view",
      "type": "function"
    },
    {
      "inputs": [
        {
          "internalType": "string[]",
          "name": "param",
          "type": "string[]"
        }
      ],
      "name": "generateNFT",
      "outputs": [
        {
          "internalType": "string",
          "name": "",
          "type": "string"
        }
      ],
      "stateMutability": "pure",
      "type": "function"
    },
    {
      "inputs": [
        {
          "internalType": "uint256",
          "name": "tokenId",
          "type": "uint256"
        },
        {
          "internalType": "string[]",
          "name": "param",
          "type": "string[]"
        },
        {
          "internalType": "string",
          "name": "name",
          "type": "string"
        },
        {
          "internalType": "string",
          "name": "breed",
          "type": "string"
        },
        {
          "internalType": "uint256",
          "name": "birthday",
          "type": "uint256"
        }
      ],
      "name": "generateTokenURI",
      "outputs": [
        {
          "internalType": "string",
          "name": "",
          "type": "string"
        }
      ],
      "stateMutability": "pure",
      "type": "function"
    },
    {
      "inputs": [
        {
          "internalType": "uint256",
          "name": "tokenId",
          "type": "uint256"
        }
      ],
      "name": "getApproved",
      "outputs": [
        {
          "internalType": "address",
          "name": "",
          "type": "address"
        }
      ],
      "stateMutability": "view",
      "type": "function"
    },
    {
      "inputs": [
        {
          "internalType": "address",
          "name": "owner",
          "type": "address"
        },
        {
          "internalType": "address",
          "name": "operator",
          "type": "address"
        }
      ],
      "name": "isApprovedForAll",
      "outputs": [
        {
          "internalType": "bool",
          "name": "",
          "type": "bool"
        }
      ],
      "stateMutability": "view",
      "type": "function"
    },
    {
      "inputs": [
        {
          "internalType": "string[]",
          "name": "param",
          "type": "string[]"
        },
        {
          "internalType": "string",
          "name": "name",
          "type": "string"
        },
        {
          "internalType": "string",
          "name": "breed",
          "type": "string"
        },
        {
          "internalType": "uint256",
          "name": "birthday",
          "type": "uint256"
        }
      ],
      "name": "mint",
      "outputs": [],
      "stateMutability": "payable",
      "type": "function"
    },
    {
      "inputs": [],
      "name": "name",
      "outputs": [
        {
          "internalType": "string",
          "name": "",
          "type": "string"
        }
      ],
      "stateMutability": "view",
      "type": "function"
    },
    {
      "inputs": [],
      "name": "nftMinted",
      "outputs": [
        {
          "internalType": "uint256",
          "name": "_value",
          "type": "uint256"
        }
      ],
      "stateMutability": "view",
      "type": "function"
    },
    {
      "inputs": [],
      "name": "owner",
      "outputs": [
        {
          "internalType": "address",
          "name": "",
          "type": "address"
        }
      ],
      "stateMutability": "view",
      "type": "function"
    },
    {
      "inputs": [
        {
          "internalType": "uint256",
          "name": "tokenId",
          "type": "uint256"
        }
      ],
      "name": "ownerOf",
      "outputs": [
        {
          "internalType": "address",
          "name": "",
          "type": "address"
        }
      ],
      "stateMutability": "view",
      "type": "function"
    },
    {
      "inputs": [],
      "name": "renounceOwnership",
      "outputs": [],
      "stateMutability": "nonpayable",
      "type": "function"
    },
    {
      "inputs": [
        {
          "internalType": "address",
          "name": "from",
          "type": "address"
        },
        {
          "internalType": "address",
          "name": "to",
          "type": "address"
        },
        {
          "internalType": "uint256",
          "name": "tokenId",
          "type": "uint256"
        }
      ],
      "name": "safeTransferFrom",
      "outputs": [],
      "stateMutability": "nonpayable",
      "type": "function"
    },
    {
      "inputs": [
        {
          "internalType": "address",
          "name": "from",
          "type": "address"
        },
        {
          "internalType": "address",
          "name": "to",
          "type": "address"
        },
        {
          "internalType": "uint256",
          "name": "tokenId",
          "type": "uint256"
        },
        {
          "internalType": "bytes",
          "name": "data",
          "type": "bytes"
        }
      ],
      "name": "safeTransferFrom",
      "outputs": [],
      "stateMutability": "nonpayable",
      "type": "function"
    },
    {
      "inputs": [
        {
          "internalType": "address",
          "name": "operator",
          "type": "address"
        },
        {
          "internalType": "bool",
          "name": "approved",
          "type": "bool"
        }
      ],
      "name": "setApprovalForAll",
      "outputs": [],
      "stateMutability": "nonpayable",
      "type": "function"
    },
    {
      "inputs": [
        {
          "internalType": "address payable",
          "name": "donationWallet",
          "type": "address"
        }
      ],
      "name": "setDonation",
      "outputs": [],
      "stateMutability": "nonpayable",
      "type": "function"
    },
    {
      "inputs": [
        {
          "internalType": "uint256",
          "name": "newPrix",
          "type": "uint256"
        }
      ],
      "name": "setPrix",
      "outputs": [],
      "stateMutability": "nonpayable",
      "type": "function"
    },
    {
      "inputs": [
        {
          "internalType": "bytes4",
          "name": "interfaceId",
          "type": "bytes4"
        }
      ],
      "name": "supportsInterface",
      "outputs": [
        {
          "internalType": "bool",
          "name": "",
          "type": "bool"
        }
      ],
      "stateMutability": "view",
      "type": "function"
    },
    {
      "inputs": [],
      "name": "symbol",
      "outputs": [
        {
          "internalType": "string",
          "name": "",
          "type": "string"
        }
      ],
      "stateMutability": "view",
      "type": "function"
    },
    {
      "inputs": [
        {
          "internalType": "uint256",
          "name": "tokenId",
          "type": "uint256"
        }
      ],
      "name": "tokenURI",
      "outputs": [
        {
          "internalType": "string",
          "name": "",
          "type": "string"
        }
      ],
      "stateMutability": "view",
      "type": "function"
    },
    {
      "inputs": [
        {
          "internalType": "address",
          "name": "from",
          "type": "address"
        },
        {
          "internalType": "address",
          "name": "to",
          "type": "address"
        },
        {
          "internalType": "uint256",
          "name": "tokenId",
          "type": "uint256"
        }
      ],
      "name": "transferFrom",
      "outputs": [],
      "stateMutability": "nonpayable",
      "type": "function"
    },
    {
      "inputs": [
        {
          "internalType": "address",
          "name": "newOwner",
          "type": "address"
        }
      ],
      "name": "transferOwnership",
      "outputs": [],
      "stateMutability": "nonpayable",
      "type": "function"
    },
    {
      "inputs": [],
      "name": "withdraw",
      "outputs": [],
      "stateMutability": "payable",
      "type": "function"
    }
  ],
  "bytecode": "0x608034620003ac576001600160401b0390601f90601f196200328238819003848101831684019190868311858410176200039657808592606094604052833981010312620003ac5781516001600160a01b03948582169291839003620003ac576020906040828601519501519562000076620003b1565b9260058452644361746f7360d81b8185015262000092620003b1565b90600382526243545360e81b8183015284519584871162000396576000968754966001978881811c911680156200038b575b85821014620003775790818784931162000324575b508490878311600114620002c3578a92620002b7575b5050600019600383901b1c191690871b1787555b8251948511620002a35785548681811c9116801562000298575b8382101462000284579081858796959493116200022b575b5081938511600114620001c65750508592620001ba575b5050600019600383901b1c191690821b1790555b60075460018060a01b03199133838316176007557f8be0079c531659141344cd1fd0a4f28419497f9722a3daafe3b4186f6b6457e0604051973393169180a36009541617600955600a55600b55612eb09081620003d28239f35b0151905038806200014c565b869593929193168588528388209388905b828210620002115750508411620001f7575b505050811b01905562000160565b015160001960f88460031b161c19169055388080620001e9565b8484015186558897909501949384019390810190620001d7565b9091929394508688528288208580880160051c8201928589106200027a575b9188978a9297969594930160051c01915b8281106200026b57505062000135565b8a81558897508991016200025b565b925081926200024a565b634e487b7160e01b88526022600452602488fd5b90607f16906200011d565b634e487b7160e01b87526041600452602487fd5b015190503880620000ef565b90848a9416918b8052868c20928c5b888282106200030d5750508411620002f3575b505050811b01875562000103565b015160001960f88460031b161c19169055388080620002e5565b8385015186558d97909501949384019301620002d2565b909150898052848a208780850160051c8201928786106200036d575b918b91869594930160051c01915b8281106200035e575050620000d9565b8c81558594508b91016200034e565b9250819262000340565b634e487b7160e01b8a52602260045260248afd5b90607f1690620000c4565b634e487b7160e01b600052604160045260246000fd5b600080fd5b60408051919082016001600160401b03811183821017620003965760405256fe610360604081815260048036101561001657600080fd5b600092833560e01c90816301ffc9a714610fc05750806306fdde0314610f18578063081812fc14610ef057806308fcef0a14610eb2578063095ea7b314610d2b578063172798a214610d0c57806323b872dd14610ce75780633651f5e414610cc8578063373c885b14610ca95780633ccfd60b14610c3857806342842e0e14610c04578063506439aa146108885780636352211e1461085857806368e432b2146107cb57806370a0823114610721578063715018a6146106c65780638da5cb5b1461069e57806395d89b41146105bb578063a22cb465146104ec578063a37f4ea9146104c4578063b88d4fde14610436578063bdd7f29514610414578063c87b56dd14610305578063dc2befe014610272578063e985e9c5146102205763f2fde38b1461014257600080fd5b3461021c57602036600319011261021c5761015b611226565b90610164611287565b6001600160a01b038092169283156101b3575050600754826001600160a01b0319821617600755167f8be0079c531659141344cd1fd0a4f28419497f9722a3daafe3b4186f6b6457e08380a380f35b906020608492519162461bcd60e51b8352820152602660248201527f4f776e61626c653a206e6577206f776e657220697320746865207a65726f206160448201527f64647265737300000000000000000000000000000000000000000000000000006064820152fd5b8280fd5b50503461026e578060031936011261026e5760ff81602093610240611226565b61024861123c565b6001600160a01b0391821683526005875283832091168252855220549151911615158152f35b5080fd5b5091346103025760a03660031901126103025767ffffffffffffffff9060243582811161026e576102a690369086016111a2565b9160443581811161021c576102be9036908701611184565b916064359182116103025750916102fe94916102e06102eb9436908501611184565b91608435933561289a565b90519182916020835260208301906110b3565b0390f35b80fd5b50903461021c5760209182600319360112610410573561034361033e8260005260026020526001600160a01b0360406000205416151590565b6112df565b83526006825280832092815180948290805461035e8161134c565b918285526001918883821691826000146103e95750506001146103ab575b5050506102fe93929161039091038661110a565b815161039b816110d8565b52519282849384528301906110b3565b8552868520879350859291905b8284106103d157505050820101816103906102fe61037c565b8054848b0186015289955088949093019281016103b8565b60ff19168782015293151560051b8601909301935084925061039091506102fe905061037c565b8380fd5b83823461026e57602036600319011261026e5761042f611287565b35600b5580f35b83823461026e57608036600319011261026e57610451611226565b9061045a61123c565b916044356064359367ffffffffffffffff85116104c057366023860112156104c0576104956104b8948660246104bd98369301359101611148565b926104a86104a384336114aa565b6113c3565b6104b3838383611589565b611856565b611434565b80f35b8580fd5b50503461026e578160031936011261026e576020906001600160a01b03600954169051908152f35b50903461021c578060031936011261021c57610506611226565b90602435918215158093036105b7576001600160a01b0316928333146105755750338452600560205280842083855260205280842060ff1981541660ff8416179055519081527f17307eab39ab6107e8899845ad3d59bd9653f200f220920489ca2b5937696c3160203392a380f35b6020606492519162461bcd60e51b8352820152601960248201527f4552433732313a20617070726f766520746f2063616c6c6572000000000000006044820152fd5b8480fd5b50503461026e578160031936011261026e578051908260018054916105df8361134c565b80865292828116908115610676575060011461061a575b505050610608826102fe94038361110a565b519182916020835260208301906110b3565b94508085527fb10e2d527612073b26eecdfd717e6a320cf44b4afac2b0732d9fcbe2b7fa0cf65b82861061065e575050506106088260206102fe95820101946105f6565b80546020878701810191909152909501948101610641565b6102fe97508693506020925061060894915060ff191682840152151560051b820101946105f6565b50503461026e578160031936011261026e576020906001600160a01b03600754169051908152f35b83346103025780600319360112610302576106df611287565b806001600160a01b036007546001600160a01b03198116600755167f8be0079c531659141344cd1fd0a4f28419497f9722a3daafe3b4186f6b6457e08280a380f35b5082903461026e57602036600319011261026e576001600160a01b03610745611226565b169081156107625760208480858581526003845220549051908152f35b608490602085519162461bcd60e51b8352820152602960248201527f4552433732313a2061646472657373207a65726f206973206e6f74206120766160448201527f6c6964206f776e657200000000000000000000000000000000000000000000006064820152fd5b503461021c57602036600319011261021c578035916001600160a01b038316809303610410576107f9611287565b82156108155750506001600160a01b0319600954161760095580f35b906020606492519162461bcd60e51b8352820152601660248201527f416464726573732063616e6e6f74206265207a65726f000000000000000000006044820152fd5b50913461030257602036600319011261030257506001600160a01b036108806020933561132a565b915191168152f35b5090608036600319011261021c5767ffffffffffffffff82358181116105b7576108b590369085016111a2565b916024358281116104c0576108cd9036908601611184565b90604435838111610c00576108e59036908701611184565b93600b543410610bbd57600194856008540193846008558351610907816110d8565b8981523315610b7a5791859493916109c86104b86109d2956109496109438f9b60005260026020526001600160a01b0360406000205416151590565b15611a39565b61096c6109438a60005260026020526001600160a01b0360406000205416151590565b338a528860209a60038c528d8a822090815401905581815260028c52898120336001600160a01b031982541617905533907fddf252ad1be2c89b69c2b068fc378daa952ba7f163c4a11628f55a4df523b3ef8180a488336116e0565b606435928661289a565b916109f38160005260026020526001600160a01b0360406000205416151590565b15610b12578752600683528620948151938411610aff5750610a15855461134c565b601f8111610ab9575b5081601f8411600114610a5857509282939183928794610a4d575b50501b916000199060031b1c191617905580f35b015192503880610a39565b919083601f1981168789528489209489905b88838310610a9f5750505010610a86575b505050811b01905580f35b015160001960f88460031b161c19169055388080610a7b565b858701518855909601959485019487935090810190610a6a565b858752828720601f850160051c810191848610610af5575b601f0160051c019085905b828110610aea575050610a1e565b888155018590610adc565b9091508190610ad1565b866041602492634e487b7160e01b835252fd5b6084878584519162461bcd60e51b8352820152602e60248201527f45524337323155524953746f726167653a2055524920736574206f66206e6f6e60448201527f6578697374656e7420746f6b656e0000000000000000000000000000000000006064820152fd5b606489602087519162461bcd60e51b8352820152602060248201527f4552433732313a206d696e7420746f20746865207a65726f20616464726573736044820152fd5b606486602084519162461bcd60e51b8352820152600f60248201527f4e6f20456e6f756768204d6f6e657900000000000000000000000000000000006044820152fd5b8680fd5b50503461026e576104b86104bd91610c1b36611252565b91925192610c28846110d8565b8684526104a86104a384336114aa565b5082806003193601126103025747600a54928315610c9657508180808080966001600160a01b03950485600754165af1610c706116b0565b5015610c9357818080926009541647905af1610c8a6116b0565b50156103025780f35b50fd5b826012602492634e487b7160e01b835252fd5b50503461026e578160031936011261026e57602090600b549051908152f35b50503461026e578160031936011261026e576020906008549051908152f35b8334610302576104bd610cf936611252565b91610d076104a384336114aa565b611589565b50503461026e578160031936011261026e57602090600a549051908152f35b503461021c578160031936011261021c57610d44611226565b90602435926001600160a01b03918280610d5d8761132a565b16941693808514610e4957803314908115610e2a575b5015610dc2578486526020528420826001600160a01b0319825416179055610d9a8361132a565b167f8c5be1e5ebec7d5bd14f71427d1e84f3dd0314c0f7b2291e5b200ac8c7c3b9258480a480f35b6020608492519162461bcd60e51b8352820152603d60248201527f4552433732313a20617070726f76652063616c6c6572206973206e6f7420746f60448201527f6b656e206f776e6572206f7220617070726f76656420666f7220616c6c0000006064820152fd5b90508652600560205281862033875260205260ff828720541638610d73565b506020608492519162461bcd60e51b8352820152602160248201527f4552433732313a20617070726f76616c20746f2063757272656e74206f776e6560448201527f72000000000000000000000000000000000000000000000000000000000000006064820152fd5b5091346103025760203660031901126103025782359067ffffffffffffffff82116103025750610eeb6102fe936102eb923691016111a2565b611a84565b50913461030257602036600319011261030257506001600160a01b0361088060209335611386565b50503461026e578160031936011261026e57805190828054610f398161134c565b808552916001918083169081156106765750600114610f6457505050610608826102fe94038361110a565b80809650527f290decd9548b62a8d60345a988386fc84ba6bc95484008f6362f93160ef3e5635b828610610fa8575050506106088260206102fe95820101946105f6565b80546020878701810191909152909501948101610f8b565b9250503461021c57602036600319011261021c57357fffffffff00000000000000000000000000000000000000000000000000000000811680910361021c57602092507f80ac58cd000000000000000000000000000000000000000000000000000000008114908115611066575b811561103c575b5015158152f35b7f01ffc9a70000000000000000000000000000000000000000000000000000000091501438611035565b7f5b5e139f000000000000000000000000000000000000000000000000000000008114915061102e565b60005b8381106110a35750506000910152565b8181015183820152602001611093565b906020916110cc81518092818552858086019101611090565b601f01601f1916010190565b6020810190811067ffffffffffffffff8211176110f457604052565b634e487b7160e01b600052604160045260246000fd5b90601f8019910116810190811067ffffffffffffffff8211176110f457604052565b67ffffffffffffffff81116110f457601f01601f191660200190565b9291926111548261112c565b91611162604051938461110a565b82948184528183011161117f578281602093846000960137010152565b600080fd5b9080601f8301121561117f5781602061119f93359101611148565b90565b9080601f8301121561117f5781359067ffffffffffffffff928383116110f4578260051b604051946020946111d98684018861110a565b865284808701928401019380851161117f57858401925b858410611201575050505050505090565b833583811161117f57879161121b848480948a0101611184565b8152019301926111f0565b600435906001600160a01b038216820361117f57565b602435906001600160a01b038216820361117f57565b606090600319011261117f576001600160a01b0390600435828116810361117f5791602435908116810361117f579060443590565b6001600160a01b0360075416330361129b57565b606460405162461bcd60e51b815260206004820152602060248201527f4f776e61626c653a2063616c6c6572206973206e6f7420746865206f776e65726044820152fd5b156112e657565b606460405162461bcd60e51b815260206004820152601860248201527f4552433732313a20696e76616c696420746f6b656e20494400000000000000006044820152fd5b60005260026020526001600160a01b036040600020541661119f8115156112df565b90600182811c9216801561137c575b602083101461136657565b634e487b7160e01b600052602260045260246000fd5b91607f169161135b565b6113a961033e8260005260026020526001600160a01b0360406000205416151590565b60005260046020526001600160a01b036040600020541690565b156113ca57565b608460405162461bcd60e51b815260206004820152602d60248201527f4552433732313a2063616c6c6572206973206e6f7420746f6b656e206f776e6560448201527f72206f7220617070726f766564000000000000000000000000000000000000006064820152fd5b1561143b57565b60405162461bcd60e51b815260206004820152603260248201527f4552433732313a207472616e7366657220746f206e6f6e20455243373231526560448201527f63656976657220696d706c656d656e74657200000000000000000000000000006064820152608490fd5b0390fd5b906001600160a01b0380806114be8461132a565b169316918383149384156114f1575b5083156114db575b50505090565b6114e791929350611386565b16143880806114d5565b909350600052600560205260406000208260005260205260ff6040600020541692386114cd565b1561151f57565b608460405162461bcd60e51b815260206004820152602560248201527f4552433732313a207472616e736665722066726f6d20696e636f72726563742060448201527f6f776e65720000000000000000000000000000000000000000000000000000006064820152fd5b906115b1916115978461132a565b916001600160a01b03938493848094169485911614611518565b1691821561164757816115ce916115c78661132a565b1614611518565b7fddf252ad1be2c89b69c2b068fc378daa952ba7f163c4a11628f55a4df523b3ef60008481526004602052604081206001600160a01b03199081815416905583825260036020526040822060001981540190558482526040822060018154019055858252600260205284604083209182541617905580a4565b608460405162461bcd60e51b8152602060048201526024808201527f4552433732313a207472616e7366657220746f20746865207a65726f2061646460448201527f72657373000000000000000000000000000000000000000000000000000000006064820152fd5b3d156116db573d906116c18261112c565b916116cf604051938461110a565b82523d6000602084013e565b606090565b9091600091803b1561184d576117336020916001600160a01b039385604051958680958194630a85bd0160e11b9b8c845233600485015285602485015260448401526080606484015260848301906110b3565b0393165af1908290826117ed575b50506117c75761174f6116b0565b805190816117c25760405162461bcd60e51b815260206004820152603260248201527f4552433732313a207472616e7366657220746f206e6f6e20455243373231526560448201527f63656976657220696d706c656d656e74657200000000000000000000000000006064820152608490fd5b602001fd5b7fffffffff00000000000000000000000000000000000000000000000000000000161490565b909192506020813d8211611845575b816118096020938361110a565b8101031261026e5751907fffffffff00000000000000000000000000000000000000000000000000000000821682036103025750903880611741565b3d91506117fc565b50505050600190565b91926000929190813b156118ad576020916117339185604051958680958194630a85bd0160e11b9b8c84523360048501526001600160a01b03809516602485015260448401526080606484015260848301906110b3565b5050505050600190565b906118c18261112c565b6118ce604051918261110a565b82815280926118df601f199161112c565b0190602036910137565b806000917a184f03e93ff9f4daa797ed6e38ed64bf6a1f01000000000000000080821015611a2b575b506d04ee2d6d415b85acef810000000080831015611a1c575b50662386f26fc1000080831015611a0d575b506305f5e100808310156119fe575b50612710808310156119ef575b5060648210156119df575b600a809210156119d5575b6001908160216119808287016118b7565b95860101905b611992575b5050505090565b600019019083907f30313233343536373839616263646566000000000000000000000000000000008282061a8353049182156119d057919082611986565b61198b565b916001019161196f565b9190606460029104910191611964565b60049193920491019138611959565b6008919392049101913861194c565b6010919392049101913861193d565b6020919392049101913861192b565b604093508104915038611912565b15611a4057565b606460405162461bcd60e51b815260206004820152601c60248201527f4552433732313a20746f6b656e20616c7265616479206d696e746564000000006044820152fd5b8051156126ff5760208101516102c0528051600110156126ff5760408101516102e0528051600210156126ff57606081015160c0528051600310156126ff5760808101516103005280516101409060048252600410156126ff5760a0820151918051600510156126ff5760c08101518151600610156126ff5760e0820151918051600710156126ff57610100810151938151600810156126ff57610120820151908251600910156126ff57820151948251600a10156126ff57610160830151948351600b10156126ff57610180840151918451600c10156126ff576101a0850151908551600d10156126ff576101c0860151938651600e10156126ff576101e0870151968051600f10156126ff57610200810151998151601010156126ff57610220820151610120528151601110156126ff5761024082015160e0528151601210156126ff57610260820151610240528151601310156126ff576102808201516080528151601410156126ff577f2220643d224d39203468314d39203568314d392036683122202f3e000000000061048e9c7f2220643d224d37203468314d37203568314d372036683122202f3e00000000006126a09f9a7f2220643d224d35203468314d35203568314d352036683122202f3e00000000007f2220643d224d32203130683222202f3e00000000000000000000000000000000987f2220643d224d34203130683122202f3e000000000000000000000000000000009f60207f2220643d224d3131203130683222202f3e0000000000000000000000000000009f7f2220643d224d31312038683222202f3e000000000000000000000000000000009e7f2220643d224d3131203468314d31312035683122202f3e000000000000000000837f2220643d224d31302034683122202f3e00000000000000000000000000000000956122367f2220643d224d322038683222202f3e00000000000000000000000000000000009f6121d1612278976102a086930151610340527f3c73766720786d6c6e733d22687474703a2f2f7777772e77332e6f72672f323083604051806102605201527f30302f737667222076696577426f783d2230202d302e3520313520313522207360406102605101527f686170652d72656e646572696e673d226372697370456467657322207769647460606102605101527f683d22353030223e00000000000000000000000000000000000000000000000060806102605101526d1e3830ba341039ba3937b5b29e9160911b60886102605101527f2220643d224d32203168314d3132203168314d31203268314d33203268314d3160966102c051611e5f81518092888561026051019101611090565b61026051018060a05201527f31203268314d3133203268314d31203368314d34203368374d3133203368314d60b660a05101527f31203468314d3133203468314d31203568314d3133203568314d32203668314d60d660a05101527f3132203668314d31203768314d3133203768314d31203868314d31332038683160f660a05101527f4d31203968314d3133203968314d3120313068314d313320313068314d32203161011660a05101527f3168314d313220313168314d3320313268314d313120313268314d342031336861013660a05101527f37222f3e0000000000000000000000000000000000000000000000000000000061015660a05101526d1e3830ba341039ba3937b5b29e9160911b61015a60a05101527f2220643d224d36203468314d38203468314d34203568314d36203568314d382083611fb861016880610220526102e051805193849260a051019101611090565b60a0510180610100526102205101527f3568314d3130203568314d33203668324d36203668314d38203668314d3130206101886101005101527f3668324d3220376831314d34203868324d39203868324d32203968334d3130206101a86101005101527f3968334d3520313068314d3920313068314d3320313168394d342031326837226101c86101005101527f2f3e0000000000000000000000000000000000000000000000000000000000006101e86101005101526d1e3830ba341039ba3937b5b29e9160911b6101ea6101005101527f2220643d224d32203268314d32203368324d32203468314d322035683122202f836120cb6101f8806102005260c051805193849261010051019101611090565b610100510180610160526102005101527f3e000000000000000000000000000000000000000000000000000000000000006102186101605101526d1e3830ba341039ba3937b5b29e9160911b6102196101605101527f2220643d224d3132203268314d3131203368324d3132203468314d313220356883612162610227806101e05261030051805193849261016051019101611090565b610160510180610280526101e05101527f3122202f3e0000000000000000000000000000000000000000000000000000006102476102805101526d1e3830ba341039ba3937b5b29e9160911b61024c61028051015261025a90816101c052805193849261028051019101611090565b6102805101917f2220643d224d33203468314d332035683122202f3e0000000000000000000000610320938085526101c05101526d1e3830ba341039ba3937b5b29e9160911b61026f8451015261027d90816101a05280519485928551019101611090565b5101806102a0526101a05101526d1e3830ba341039ba3937b5b29e9160911b6102946102a05101526102a290816101805280519384926102a051019101611090565b6102a051017f2220643d224d342034683122202f3e0000000000000000000000000000000000610180518201526d1e3830ba341039ba3937b5b29e9160911b6102b18201528251906122d4826102bf9560208785019101611090565b01918201526d1e3830ba341039ba3937b5b29e9160911b6102cf820152825190612308826102dd9560208785019101611090565b01918201526d1e3830ba341039ba3937b5b29e9160911b6102f882015282519061233c826103069560208785019101611090565b01918201526d1e3830ba341039ba3937b5b29e9160911b6103218201528251906123708261032f9560208785019101611090565b01918201526d1e3830ba341039ba3937b5b29e9160911b61034a8201528251906123a4826103589560208785019101611090565b01918201526d1e3830ba341039ba3937b5b29e9160911b6103678201528251906123d8826103759560208785019101611090565b01918201526d1e3830ba341039ba3937b5b29e9160911b61038582015282519061240c826103939560208785019101611090565b01918201526d1e3830ba341039ba3937b5b29e9160911b6103a3820152825190612440826103b19560208785019101611090565b01918201526d1e3830ba341039ba3937b5b29e9160911b6103c2820152825190612474826103d09560208785019101611090565b01918201526d1e3830ba341039ba3937b5b29e9160911b6103e08201527f2220643d224d3130203130683122202f3e00000000000000000000000000000061012051918251906124ce826103ee9560208785019101611090565b01918201526d1e3830ba341039ba3937b5b29e9160911b6103ff8201527f2220643d224d352039683122202f3e000000000000000000000000000000000060e051918251906125278261040d9560208785019101611090565b01918201526d1e3830ba341039ba3937b5b29e9160911b61041c8201527f2220643d224d392039683122202f3e000000000000000000000000000000000061024051918251906125818261042a9560208785019101611090565b01918201526d1e3830ba341039ba3937b5b29e9160911b6104398201527f2220643d224d37203130683122202f3e00000000000000000000000000000000608051918251906125da826104479560208785019101611090565b01918201526d1e3830ba341039ba3937b5b29e9160911b6104578201527f2220643d224d36203868334d36203968334d3620313068314d382031306831226103405191825190612634826104659560208785019101611090565b01918201527f202f3e00000000000000000000000000000000000000000000000000000000006104858201527f3c2f7376673e0000000000000000000000000000000000000000000000000000610488820152610260518091039061046e82019052016102605161110a565b6126ac61026051612715565b61119f603a60405180937f646174613a696d6167652f7376672b786d6c3b6261736536342c00000000000060208301526126ef8151809260208686019101611090565b810103601a81018452018261110a565b634e487b7160e01b600052603260045260246000fd5b805115612886576040516060810181811067ffffffffffffffff8211176110f457604052604081527f4142434445464748494a4b4c4d4e4f505152535455565758595a61626364656660208201527f6768696a6b6c6d6e6f707172737475767778797a303132333435363738392b2f604082015281516002928382018092116128705760038092047f3fffffffffffffffffffffffffffffffffffffffffffffffffffffffffffffff81168103612870576127d3908594951b6118b7565b936020850193829183518401925b83811061281f575050505051068060011461280c57600214612801575090565b603d90600019015390565b50603d9081600019820153600119015390565b85600491979293949701918251600190603f9082828260121c16880101518453828282600c1c16880101518385015382828260061c16880101518885015316850101518782015301959291906127e1565b634e487b7160e01b600052601160045260246000fd5b50604051612893816110d8565b6000815290565b6001949293929085600073__$1beee79896912e0a2fdec4b0713e6edb3d$__825b612da1575b506128cb91506118e9565b9560405190612948603a8360209a7f506172616d6574657220000000000000000000000000000000000000000000008c8301526129128c8251928391602a86019101611090565b81017f206e6f742061204845582076616c756500000000000000000000000000000000602a82015203601a81018552018361110a565b15612d7f575093612d3061016b603d9588957f227d000000000000000000000000000000000000000000000000000000000000612d6f9a612d35976129a161299b61299561119f9e6118e9565b95611a84565b916118e9565b936040519889967f7b000000000000000000000000000000000000000000000000000000000000009283868a01527f226e616d65223a20224361746f7320000000000000000000000000000000000060218a0152612a08815180928860308d019101611090565b8801937f222c000000000000000000000000000000000000000000000000000000000000948560308201527f226465736372697074696f6e223a20224361746f73206973204120636f6d6d7560328201527f6e6974792d64726976656e20636f6c6c65637469626c65732070726f6a65637460528201527f206261736564203130302025206f6e20426c6f636b636861696e202c20416c6c60728201527f206e667473206172652063726561746564206f6e20736d61727420636f6e747260928201527f6163747320627920757365727320666f722074686569722063617473202c222c60b28201527f22696d616765223a20220000000000000000000000000000000000000000000060d2820152612b2a825180938960dc85019101611090565b019360dc8501527f2261747472696275746573223a0000000000000000000000000000000000000060de8501527f5b0000000000000000000000000000000000000000000000000000000000000060eb8501528260ec8501527f2274726169745f74797065223a224e616d65222c00000000000000000000000060ed8501527f2276616c7565223a2200000000000000000000000000000000000000000000009384610101820152825190612be88261010a95898785019101611090565b017f227d2c000000000000000000000000000000000000000000000000000000000080938201528361010d8201527f2274726169745f74797065223a224272656564222c000000000000000000000061010e82015284610123820152612c598251809361012c988985019101611090565b019384015261012f8301527f22646973706c61795f74797065223a2264617465222c000000000000000000006101308301527f2274726169745f74797065223a226269727468646179222c000000000000000061014683015261015e820152825190612cce82610167958c8785019101611090565b01918201527f5d000000000000000000000000000000000000000000000000000000000000006101698201527f7d0000000000000000000000000000000000000000000000000000000000000061016a8201520361014b81018452018261110a565b612715565b60405194827f646174613a6170706c69636174696f6e2f6a736f6e3b6261736536342c000000879485015282519283918686019101611090565b810103601d81018452018261110a565b866114a660405192839262461bcd60e51b8452600484015260248301906110b3565b8551821015612e75576020612df6818460051b8901015191806040938451809481927fafdcf10000000000000000000000000000000000000000000000000000000000835284600484015260248301906110b3565b0381875af4928315612e6b5750600092612e35575b505015612e255760001982146128705782809201916128bb565b509650506128cb600096386128c0565b81813d8311612e64575b612e49818361110a565b8101031261026e575190811515820361030257503880612e0b565b503d612e3f565b513d6000823e3d90fd5b6128c056fea26469706673582212208c1cd68549d35f5fe9bce3d15335d1e1d38adb91267d505457bf80931417777d64736f6c63430008110033",
  "linkReferences": {
    "contracts/Hex.sol": {
      "Hex": [
        {
          "length": 20,
          "start": 11384
        }
      ]
    }
  },
  "deployedLinkReferences": {
    "contracts/Hex.sol": {
      "Hex": [
        {
          "length": 20,
          "start": 10406
        }
      ]
    }
  }
}